{
  "_format": "hh-sol-artifact-1",
  "contractName": "MockTellorProxy",
  "sourceName": "contracts/mocks/MockTellorProxy.sol",
  "abi": [
    {
      "inputs": [
        {
          "internalType": "address",
          "name": "_scribe",
          "type": "address"
        }
      ],
      "stateMutability": "nonpayable",
      "type": "constructor"
    },
    {
      "inputs": [],
      "name": "SubmitValueFailed",
      "type": "error"
    },
    {
      "inputs": [
        {
          "internalType": "bytes",
          "name": "_data",
          "type": "bytes"
        }
      ],
      "name": "handleTellorData",
      "outputs": [],
      "stateMutability": "nonpayable",
      "type": "function"
    },
    {
      "inputs": [],
      "name": "scribe",
      "outputs": [
        {
          "internalType": "address",
          "name": "",
          "type": "address"
        }
      ],
      "stateMutability": "view",
      "type": "function"
    }
  ],
  "bytecode": "0x608060405234801561001057600080fd5b50604051610939380380610939833981810160405281019061003291906100db565b806000806101000a81548173ffffffffffffffffffffffffffffffffffffffff021916908373ffffffffffffffffffffffffffffffffffffffff16021790555050610108565b600080fd5b600073ffffffffffffffffffffffffffffffffffffffff82169050919050565b60006100a88261007d565b9050919050565b6100b88161009d565b81146100c357600080fd5b50565b6000815190506100d5816100af565b92915050565b6000602082840312156100f1576100f0610078565b5b60006100ff848285016100c6565b91505092915050565b610822806101176000396000f3fe608060405234801561001057600080fd5b50600436106100365760003560e01c80630be058ae1461003b578063b3ac72f614610057575b600080fd5b61005560048036038101906100509190610311565b610075565b005b61005f610274565b60405161006c919061039f565b60405180910390f35b60008054906101000a900473ffffffffffffffffffffffffffffffffffffffff1673ffffffffffffffffffffffffffffffffffffffff163373ffffffffffffffffffffffffffffffffffffffff1614610103576040517f08c379a00000000000000000000000000000000000000000000000000000000081526004016100fa9061043d565b60405180910390fd5b6000806000808585810190610118919061060a565b93509350935093506000733251838bd813fdf6a97d32781e011cce8d225d5973ffffffffffffffffffffffffffffffffffffffff16858585856040516024016101649493929190610746565b6040516020818303038152906040527f5eaa9ced000000000000000000000000000000000000000000000000000000007bffffffffffffffffffffffffffffffffffffffffffffffffffffffff19166020820180517bffffffffffffffffffffffffffffffffffffffffffffffffffffffff83818316178352505050506040516101ee91906107d5565b6000604051808303816000865af19150503d806000811461022b576040519150601f19603f3d011682016040523d82523d6000602084013e610230565b606091505b505090508061026b576040517f816a50f200000000000000000000000000000000000000000000000000000000815260040160405180910390fd5b50505050505050565b60008054906101000a900473ffffffffffffffffffffffffffffffffffffffff1681565b6000604051905090565b600080fd5b600080fd5b600080fd5b600080fd5b600080fd5b60008083601f8401126102d1576102d06102ac565b5b8235905067ffffffffffffffff8111156102ee576102ed6102b1565b5b60208301915083600182028301111561030a576103096102b6565b5b9250929050565b60008060208385031215610328576103276102a2565b5b600083013567ffffffffffffffff811115610346576103456102a7565b5b610352858286016102bb565b92509250509250929050565b600073ffffffffffffffffffffffffffffffffffffffff82169050919050565b60006103898261035e565b9050919050565b6103998161037e565b82525050565b60006020820190506103b46000830184610390565b92915050565b600082825260208201905092915050565b7f4d6f636b44657374696e6174696f6e3a204f6e6c79207363726962652063616e60008201527f2063616c6c20746869732066756e6374696f6e00000000000000000000000000602082015250565b60006104276033836103ba565b9150610432826103cb565b604082019050919050565b600060208201905081810360008301526104568161041a565b9050919050565b6000819050919050565b6104708161045d565b811461047b57600080fd5b50565b60008135905061048d81610467565b92915050565b600080fd5b6000601f19601f8301169050919050565b7f4e487b7100000000000000000000000000000000000000000000000000000000600052604160045260246000fd5b6104e182610498565b810181811067ffffffffffffffff82111715610500576104ff6104a9565b5b80604052505050565b6000610513610298565b905061051f82826104d8565b919050565b600067ffffffffffffffff82111561053f5761053e6104a9565b5b61054882610498565b9050602081019050919050565b82818337600083830152505050565b600061057761057284610524565b610509565b90508281526020810184848401111561059357610592610493565b5b61059e848285610555565b509392505050565b600082601f8301126105bb576105ba6102ac565b5b81356105cb848260208601610564565b91505092915050565b6000819050919050565b6105e7816105d4565b81146105f257600080fd5b50565b600081359050610604816105de565b92915050565b60008060008060808587031215610624576106236102a2565b5b60006106328782880161047e565b945050602085013567ffffffffffffffff811115610653576106526102a7565b5b61065f878288016105a6565b9350506040610670878288016105f5565b925050606085013567ffffffffffffffff811115610691576106906102a7565b5b61069d878288016105a6565b91505092959194509250565b6106b28161045d565b82525050565b600081519050919050565b600082825260208201905092915050565b60005b838110156106f25780820151818401526020810190506106d7565b60008484015250505050565b6000610709826106b8565b61071381856106c3565b93506107238185602086016106d4565b61072c81610498565b840191505092915050565b610740816105d4565b82525050565b600060808201905061075b60008301876106a9565b818103602083015261076d81866106fe565b905061077c6040830185610737565b818103606083015261078e81846106fe565b905095945050505050565b600081905092915050565b60006107af826106b8565b6107b98185610799565b93506107c98185602086016106d4565b80840191505092915050565b60006107e182846107a4565b91508190509291505056fea2646970667358221220f13795acaabecc2dc0651bd802701279771c5484c9159bafcd03edefeffba3e164736f6c63430008110033",
  "linkReferences": {},
  "deployedLinkReferences": {}
}