{
  "_format": "hh-sol-artifact-1",
  "contractName": "Scribe",
  "sourceName": "contracts/Scribe.sol",
  "abi": [
    {
      "inputs": [],
      "stateMutability": "nonpayable",
      "type": "constructor"
    },
    {
      "inputs": [],
      "name": "OnlyOwner",
      "type": "error"
    },
    {
      "inputs": [],
      "name": "SubmitValueFailed",
      "type": "error"
    },
    {
      "inputs": [
        {
          "internalType": "address",
          "name": "_reporter",
          "type": "address"
        }
      ],
      "name": "addReporter",
      "outputs": [],
      "stateMutability": "nonpayable",
      "type": "function"
    },
    {
      "inputs": [],
      "name": "owner",
      "outputs": [
        {
          "internalType": "address",
          "name": "",
          "type": "address"
        }
      ],
      "stateMutability": "view",
      "type": "function"
    },
    {
      "inputs": [
        {
          "internalType": "address",
          "name": "_reporter",
          "type": "address"
        }
      ],
      "name": "removeReporter",
      "outputs": [],
      "stateMutability": "nonpayable",
      "type": "function"
    },
    {
      "inputs": [
        {
          "internalType": "address",
          "name": "",
          "type": "address"
        }
      ],
      "name": "reporters",
      "outputs": [
        {
          "internalType": "bool",
          "name": "",
          "type": "bool"
        }
      ],
      "stateMutability": "view",
      "type": "function"
    },
    {
      "inputs": [
        {
          "internalType": "address",
          "name": "_target",
          "type": "address"
        },
        {
          "internalType": "bytes4",
          "name": "_selector",
          "type": "bytes4"
        },
        {
          "internalType": "bytes",
          "name": "_data",
          "type": "bytes"
        }
      ],
      "name": "submitValue",
      "outputs": [],
      "stateMutability": "nonpayable",
      "type": "function"
    }
  ],
  "bytecode": "0x608060405234801561001057600080fd5b50336000806101000a81548173ffffffffffffffffffffffffffffffffffffffff021916908373ffffffffffffffffffffffffffffffffffffffff160217905550610732806100606000396000f3fe608060405234801561001057600080fd5b50600436106100575760003560e01c80632cc1cd9e1461005c5780635de5c2121461008c5780638da5cb5b146100a8578063dd8755f2146100c6578063e57a76a4146100e2575b600080fd5b61007660048036038101906100719190610437565b6100fe565b604051610083919061047f565b60405180910390f35b6100a660048036038101906100a19190610437565b61011e565b005b6100b06101fe565b6040516100bd91906104a9565b60405180910390f35b6100e060048036038101906100db9190610437565b610222565b005b6100fc60048036038101906100f79190610581565b610301565b005b60016020528060005260406000206000915054906101000a900460ff1681565b60008054906101000a900473ffffffffffffffffffffffffffffffffffffffff1673ffffffffffffffffffffffffffffffffffffffff163373ffffffffffffffffffffffffffffffffffffffff16146101a3576040517f5fc483c500000000000000000000000000000000000000000000000000000000815260040160405180910390fd5b6000600160008373ffffffffffffffffffffffffffffffffffffffff1673ffffffffffffffffffffffffffffffffffffffff16815260200190815260200160002060006101000a81548160ff02191690831515021790555050565b60008054906101000a900473ffffffffffffffffffffffffffffffffffffffff1681565b60008054906101000a900473ffffffffffffffffffffffffffffffffffffffff1673ffffffffffffffffffffffffffffffffffffffff163373ffffffffffffffffffffffffffffffffffffffff16146102a7576040517f5fc483c500000000000000000000000000000000000000000000000000000000815260040160405180910390fd5b60018060008373ffffffffffffffffffffffffffffffffffffffff1673ffffffffffffffffffffffffffffffffffffffff16815260200190815260200160002060006101000a81548160ff02191690831515021790555050565b60008473ffffffffffffffffffffffffffffffffffffffff1684848460405160200161032f93929190610655565b60405160208183030381529060405260405161034b91906106e5565b6000604051808303816000865af19150503d8060008114610388576040519150601f19603f3d011682016040523d82523d6000602084013e61038d565b606091505b50509050806103c8576040517f816a50f200000000000000000000000000000000000000000000000000000000815260040160405180910390fd5b5050505050565b600080fd5b600080fd5b600073ffffffffffffffffffffffffffffffffffffffff82169050919050565b6000610404826103d9565b9050919050565b610414816103f9565b811461041f57600080fd5b50565b6000813590506104318161040b565b92915050565b60006020828403121561044d5761044c6103cf565b5b600061045b84828501610422565b91505092915050565b60008115159050919050565b61047981610464565b82525050565b60006020820190506104946000830184610470565b92915050565b6104a3816103f9565b82525050565b60006020820190506104be600083018461049a565b92915050565b60007fffffffff0000000000000000000000000000000000000000000000000000000082169050919050565b6104f9816104c4565b811461050457600080fd5b50565b600081359050610516816104f0565b92915050565b600080fd5b600080fd5b600080fd5b60008083601f8401126105415761054061051c565b5b8235905067ffffffffffffffff81111561055e5761055d610521565b5b60208301915083600182028301111561057a57610579610526565b5b9250929050565b6000806000806060858703121561059b5761059a6103cf565b5b60006105a987828801610422565b94505060206105ba87828801610507565b935050604085013567ffffffffffffffff8111156105db576105da6103d4565b5b6105e78782880161052b565b925092505092959194509250565b6000819050919050565b61061061060b826104c4565b6105f5565b82525050565b600081905092915050565b82818337600083830152505050565b600061063c8385610616565b9350610649838584610621565b82840190509392505050565b600061066182866105ff565b600482019150610672828486610630565b9150819050949350505050565b600081519050919050565b60005b838110156106a857808201518184015260208101905061068d565b60008484015250505050565b60006106bf8261067f565b6106c98185610616565b93506106d981856020860161068a565b80840191505092915050565b60006106f182846106b4565b91508190509291505056fea26469706673582212201076c49b82ff13de9cb8b86728847ccb06c564307104e7d27be87aebc708eb2b64736f6c63430008110033",
  "linkReferences": {},
  "deployedLinkReferences": {}
}