{
  "_format": "hh-sol-artifact-1",
  "contractName": "MockDestination",
  "sourceName": "contracts/mocks/MockDestination.sol",
  "abi": [
    {
      "inputs": [
        {
          "internalType": "address",
          "name": "_scribe",
          "type": "address"
        }
      ],
      "stateMutability": "nonpayable",
      "type": "constructor"
    },
    {
      "anonymous": false,
      "inputs": [
        {
          "indexed": false,
          "internalType": "uint256",
          "name": "calledCount",
          "type": "uint256"
        },
        {
          "indexed": false,
          "internalType": "uint256",
          "name": "blockNumber",
          "type": "uint256"
        },
        {
          "indexed": false,
          "internalType": "int256",
          "name": "amount0",
          "type": "int256"
        },
        {
          "indexed": false,
          "internalType": "int256",
          "name": "amount1",
          "type": "int256"
        }
      ],
      "name": "PayloadReceived",
      "type": "event"
    },
    {
      "anonymous": false,
      "inputs": [
        {
          "indexed": false,
          "internalType": "uint256",
          "name": "ethPriceInUsd",
          "type": "uint256"
        }
      ],
      "name": "WebAPIReceived",
      "type": "event"
    },
    {
      "inputs": [],
      "name": "ethPriceInUsd",
      "outputs": [
        {
          "internalType": "uint256",
          "name": "",
          "type": "uint256"
        }
      ],
      "stateMutability": "view",
      "type": "function"
    },
    {
      "inputs": [],
      "name": "getEthPriceInUsd",
      "outputs": [
        {
          "internalType": "uint256",
          "name": "",
          "type": "uint256"
        }
      ],
      "stateMutability": "view",
      "type": "function"
    },
    {
      "inputs": [],
      "name": "getPayload",
      "outputs": [
        {
          "internalType": "uint256",
          "name": "",
          "type": "uint256"
        },
        {
          "internalType": "uint256",
          "name": "",
          "type": "uint256"
        },
        {
          "internalType": "int256",
          "name": "",
          "type": "int256"
        },
        {
          "internalType": "int256",
          "name": "",
          "type": "int256"
        }
      ],
      "stateMutability": "view",
      "type": "function"
    },
    {
      "inputs": [
        {
          "internalType": "bytes",
          "name": "_data",
          "type": "bytes"
        }
      ],
      "name": "handleReceive",
      "outputs": [],
      "stateMutability": "nonpayable",
      "type": "function"
    },
    {
      "inputs": [
        {
          "internalType": "bytes",
          "name": "_data",
          "type": "bytes"
        }
      ],
      "name": "handleWebApi",
      "outputs": [],
      "stateMutability": "nonpayable",
      "type": "function"
    },
    {
      "inputs": [],
      "name": "payload",
      "outputs": [
        {
          "internalType": "uint256",
          "name": "calledCount",
          "type": "uint256"
        },
        {
          "internalType": "uint256",
          "name": "blockNumber",
          "type": "uint256"
        },
        {
          "internalType": "int256",
          "name": "amount0",
          "type": "int256"
        },
        {
          "internalType": "int256",
          "name": "amount1",
          "type": "int256"
        }
      ],
      "stateMutability": "view",
      "type": "function"
    },
    {
      "inputs": [],
      "name": "scribe",
      "outputs": [
        {
          "internalType": "address",
          "name": "",
          "type": "address"
        }
      ],
      "stateMutability": "view",
      "type": "function"
    }
  ],
  "bytecode": "0x608060405234801561001057600080fd5b50604051610891380380610891833981810160405281019061003291906100db565b806000806101000a81548173ffffffffffffffffffffffffffffffffffffffff021916908373ffffffffffffffffffffffffffffffffffffffff16021790555050610108565b600080fd5b600073ffffffffffffffffffffffffffffffffffffffff82169050919050565b60006100a88261007d565b9050919050565b6100b88161009d565b81146100c357600080fd5b50565b6000815190506100d5816100af565b92915050565b6000602082840312156100f1576100f0610078565b5b60006100ff848285016100c6565b91505092915050565b61077a806101176000396000f3fe608060405234801561001057600080fd5b506004361061007d5760003560e01c8063b3ac72f61161005b578063b3ac72f6146100e2578063d67b98a914610100578063e08125f71461011e578063e34381a11461013a5761007d565b80632cae8ae414610082578063683e0bcd146100a3578063a878f858146100c1575b600080fd5b61008a610156565b60405161009a949392919061043d565b60405180910390f35b6100ab610181565b6040516100b89190610482565b60405180910390f35b6100c9610187565b6040516100d9949392919061043d565b60405180910390f35b6100ea6101a5565b6040516100f791906104de565b60405180910390f35b6101086101c9565b6040516101159190610482565b60405180910390f35b61013860048036038101906101339190610568565b6101d3565b005b610154600480360381019061014f9190610568565b6102b7565b005b6000806000806001600001546001800154600160020154600160030154935093509350935090919293565b60055481565b60018060000154908060010154908060020154908060030154905084565b60008054906101000a900473ffffffffffffffffffffffffffffffffffffffff1681565b6000600554905090565b60008054906101000a900473ffffffffffffffffffffffffffffffffffffffff1673ffffffffffffffffffffffffffffffffffffffff163373ffffffffffffffffffffffffffffffffffffffff1614610261576040517f08c379a000000000000000000000000000000000000000000000000000000000815260040161025890610638565b60405180910390fd5b600082828101906102729190610684565b90507fc7a95347a72a03504c211999ec5df015d5ba84d8d0038be45bb812e8e4ca99d2816040516102a39190610482565b60405180910390a180600581905550505050565b60008054906101000a900473ffffffffffffffffffffffffffffffffffffffff1673ffffffffffffffffffffffffffffffffffffffff163373ffffffffffffffffffffffffffffffffffffffff1614610345576040517f08c379a000000000000000000000000000000000000000000000000000000000815260040161033c90610638565b60405180910390fd5b600080600080858581019061035a91906106dd565b9350935093509350600060405180608001604052808681526020018581526020018481526020018381525090507fc7579df4bfa486bab899aa23a205677d0fac2008e9e50f2cf37e326301aa8bab81600001518260200151836040015184606001516040516103cc949392919061043d565b60405180910390a18060016000820151816000015560208201518160010155604082015181600201556060820151816003015590505050505050505050565b6000819050919050565b61041e8161040b565b82525050565b6000819050919050565b61043781610424565b82525050565b60006080820190506104526000830187610415565b61045f6020830186610415565b61046c604083018561042e565b610479606083018461042e565b95945050505050565b60006020820190506104976000830184610415565b92915050565b600073ffffffffffffffffffffffffffffffffffffffff82169050919050565b60006104c88261049d565b9050919050565b6104d8816104bd565b82525050565b60006020820190506104f360008301846104cf565b92915050565b600080fd5b600080fd5b600080fd5b600080fd5b600080fd5b60008083601f84011261052857610527610503565b5b8235905067ffffffffffffffff81111561054557610544610508565b5b6020830191508360018202830111156105615761056061050d565b5b9250929050565b6000806020838503121561057f5761057e6104f9565b5b600083013567ffffffffffffffff81111561059d5761059c6104fe565b5b6105a985828601610512565b92509250509250929050565b600082825260208201905092915050565b7f4d6f636b44657374696e6174696f6e3a204f6e6c79207363726962652063616e60008201527f2063616c6c20746869732066756e6374696f6e00000000000000000000000000602082015250565b60006106226033836105b5565b915061062d826105c6565b604082019050919050565b6000602082019050818103600083015261065181610615565b9050919050565b6106618161040b565b811461066c57600080fd5b50565b60008135905061067e81610658565b92915050565b60006020828403121561069a576106996104f9565b5b60006106a88482850161066f565b91505092915050565b6106ba81610424565b81146106c557600080fd5b50565b6000813590506106d7816106b1565b92915050565b600080600080608085870312156106f7576106f66104f9565b5b60006107058782880161066f565b94505060206107168782880161066f565b9350506040610727878288016106c8565b9250506060610738878288016106c8565b9150509295919450925056fea2646970667358221220c4b1c82cfa5bdaac61e45171ca027a27bddb413d3a6d35dc5decd3d654e7345364736f6c63430008110033",
  "linkReferences": {},
  "deployedLinkReferences": {}
}