{"contracts/mocks/MockTellorProxy.sol":{"MockTellorProxy":{"abi":[{"inputs":[{"internalType":"address","name":"_scribe","type":"address"}],"stateMutability":"nonpayable","type":"constructor"},{"inputs":[],"name":"SubmitValueFailed","type":"error"},{"inputs":[{"internalType":"bytes","name":"_data","type":"bytes"}],"name":"handleTellorData","outputs":[],"stateMutability":"nonpayable","type":"function"},{"inputs":[],"name":"scribe","outputs":[{"internalType":"address","name":"","type":"address"}],"stateMutability":"view","type":"function"}],"evm":{"bytecode":{"linkReferences":{},"object":"608060405234801561001057600080fd5b50604051610939380380610939833981810160405281019061003291906100db565b806000806101000a81548173ffffffffffffffffffffffffffffffffffffffff021916908373ffffffffffffffffffffffffffffffffffffffff16021790555050610108565b600080fd5b600073ffffffffffffffffffffffffffffffffffffffff82169050919050565b60006100a88261007d565b9050919050565b6100b88161009d565b81146100c357600080fd5b50565b6000815190506100d5816100af565b92915050565b6000602082840312156100f1576100f0610078565b5b60006100ff848285016100c6565b91505092915050565b610822806101176000396000f3fe608060405234801561001057600080fd5b50600436106100365760003560e01c80630be058ae1461003b578063b3ac72f614610057575b600080fd5b61005560048036038101906100509190610311565b610075565b005b61005f610274565b60405161006c919061039f565b60405180910390f35b60008054906101000a900473ffffffffffffffffffffffffffffffffffffffff1673ffffffffffffffffffffffffffffffffffffffff163373ffffffffffffffffffffffffffffffffffffffff1614610103576040517f08c379a00000000000000000000000000000000000000000000000000000000081526004016100fa9061043d565b60405180910390fd5b6000806000808585810190610118919061060a565b93509350935093506000733251838bd813fdf6a97d32781e011cce8d225d5973ffffffffffffffffffffffffffffffffffffffff16858585856040516024016101649493929190610746565b6040516020818303038152906040527f5eaa9ced000000000000000000000000000000000000000000000000000000007bffffffffffffffffffffffffffffffffffffffffffffffffffffffff19166020820180517bffffffffffffffffffffffffffffffffffffffffffffffffffffffff83818316178352505050506040516101ee91906107d5565b6000604051808303816000865af19150503d806000811461022b576040519150601f19603f3d011682016040523d82523d6000602084013e610230565b606091505b505090508061026b576040517f816a50f200000000000000000000000000000000000000000000000000000000815260040160405180910390fd5b50505050505050565b60008054906101000a900473ffffffffffffffffffffffffffffffffffffffff1681565b6000604051905090565b600080fd5b600080fd5b600080fd5b600080fd5b600080fd5b60008083601f8401126102d1576102d06102ac565b5b8235905067ffffffffffffffff8111156102ee576102ed6102b1565b5b60208301915083600182028301111561030a576103096102b6565b5b9250929050565b60008060208385031215610328576103276102a2565b5b600083013567ffffffffffffffff811115610346576103456102a7565b5b610352858286016102bb565b92509250509250929050565b600073ffffffffffffffffffffffffffffffffffffffff82169050919050565b60006103898261035e565b9050919050565b6103998161037e565b82525050565b60006020820190506103b46000830184610390565b92915050565b600082825260208201905092915050565b7f4d6f636b44657374696e6174696f6e3a204f6e6c79207363726962652063616e60008201527f2063616c6c20746869732066756e6374696f6e00000000000000000000000000602082015250565b60006104276033836103ba565b9150610432826103cb565b604082019050919050565b600060208201905081810360008301526104568161041a565b9050919050565b6000819050919050565b6104708161045d565b811461047b57600080fd5b50565b60008135905061048d81610467565b92915050565b600080fd5b6000601f19601f8301169050919050565b7f4e487b7100000000000000000000000000000000000000000000000000000000600052604160045260246000fd5b6104e182610498565b810181811067ffffffffffffffff82111715610500576104ff6104a9565b5b80604052505050565b6000610513610298565b905061051f82826104d8565b919050565b600067ffffffffffffffff82111561053f5761053e6104a9565b5b61054882610498565b9050602081019050919050565b82818337600083830152505050565b600061057761057284610524565b610509565b90508281526020810184848401111561059357610592610493565b5b61059e848285610555565b509392505050565b600082601f8301126105bb576105ba6102ac565b5b81356105cb848260208601610564565b91505092915050565b6000819050919050565b6105e7816105d4565b81146105f257600080fd5b50565b600081359050610604816105de565b92915050565b60008060008060808587031215610624576106236102a2565b5b60006106328782880161047e565b945050602085013567ffffffffffffffff811115610653576106526102a7565b5b61065f878288016105a6565b9350506040610670878288016105f5565b925050606085013567ffffffffffffffff811115610691576106906102a7565b5b61069d878288016105a6565b91505092959194509250565b6106b28161045d565b82525050565b600081519050919050565b600082825260208201905092915050565b60005b838110156106f25780820151818401526020810190506106d7565b60008484015250505050565b6000610709826106b8565b61071381856106c3565b93506107238185602086016106d4565b61072c81610498565b840191505092915050565b610740816105d4565b82525050565b600060808201905061075b60008301876106a9565b818103602083015261076d81866106fe565b905061077c6040830185610737565b818103606083015261078e81846106fe565b905095945050505050565b600081905092915050565b60006107af826106b8565b6107b98185610799565b93506107c98185602086016106d4565b80840191505092915050565b60006107e182846107a4565b91508190509291505056fea2646970667358221220f13795acaabecc2dc0651bd802701279771c5484c9159bafcd03edefeffba3e164736f6c63430008110033","opcodes":"PUSH1 0x80 PUSH1 0x40 MSTORE CALLVALUE DUP1 ISZERO PUSH2 0x10 JUMPI PUSH1 0x0 DUP1 REVERT JUMPDEST POP PUSH1 0x40 MLOAD PUSH2 0x939 CODESIZE SUB DUP1 PUSH2 0x939 DUP4 CODECOPY DUP2 DUP2 ADD PUSH1 0x40 MSTORE DUP2 ADD SWAP1 PUSH2 0x32 SWAP2 SWAP1 PUSH2 0xDB JUMP JUMPDEST DUP1 PUSH1 0x0 DUP1 PUSH2 0x100 EXP DUP2 SLOAD DUP2 PUSH20 0xFFFFFFFFFFFFFFFFFFFFFFFFFFFFFFFFFFFFFFFF MUL NOT AND SWAP1 DUP4 PUSH20 0xFFFFFFFFFFFFFFFFFFFFFFFFFFFFFFFFFFFFFFFF AND MUL OR SWAP1 SSTORE POP POP PUSH2 0x108 JUMP JUMPDEST PUSH1 0x0 DUP1 REVERT JUMPDEST PUSH1 0x0 PUSH20 0xFFFFFFFFFFFFFFFFFFFFFFFFFFFFFFFFFFFFFFFF DUP3 AND SWAP1 POP SWAP2 SWAP1 POP JUMP JUMPDEST PUSH1 0x0 PUSH2 0xA8 DUP3 PUSH2 0x7D JUMP JUMPDEST SWAP1 POP SWAP2 SWAP1 POP JUMP JUMPDEST PUSH2 0xB8 DUP2 PUSH2 0x9D JUMP JUMPDEST DUP2 EQ PUSH2 0xC3 JUMPI PUSH1 0x0 DUP1 REVERT JUMPDEST POP JUMP JUMPDEST PUSH1 0x0 DUP2 MLOAD SWAP1 POP PUSH2 0xD5 DUP2 PUSH2 0xAF JUMP JUMPDEST SWAP3 SWAP2 POP POP JUMP JUMPDEST PUSH1 0x0 PUSH1 0x20 DUP3 DUP5 SUB SLT ISZERO PUSH2 0xF1 JUMPI PUSH2 0xF0 PUSH2 0x78 JUMP JUMPDEST JUMPDEST PUSH1 0x0 PUSH2 0xFF DUP5 DUP3 DUP6 ADD PUSH2 0xC6 JUMP JUMPDEST SWAP2 POP POP SWAP3 SWAP2 POP POP JUMP JUMPDEST PUSH2 0x822 DUP1 PUSH2 0x117 PUSH1 0x0 CODECOPY PUSH1 0x0 RETURN INVALID PUSH1 0x80 PUSH1 0x40 MSTORE CALLVALUE DUP1 ISZERO PUSH2 0x10 JUMPI PUSH1 0x0 DUP1 REVERT JUMPDEST POP PUSH1 0x4 CALLDATASIZE LT PUSH2 0x36 JUMPI PUSH1 0x0 CALLDATALOAD PUSH1 0xE0 SHR DUP1 PUSH4 0xBE058AE EQ PUSH2 0x3B JUMPI DUP1 PUSH4 0xB3AC72F6 EQ PUSH2 0x57 JUMPI JUMPDEST PUSH1 0x0 DUP1 REVERT JUMPDEST PUSH2 0x55 PUSH1 0x4 DUP1 CALLDATASIZE SUB DUP2 ADD SWAP1 PUSH2 0x50 SWAP2 SWAP1 PUSH2 0x311 JUMP JUMPDEST PUSH2 0x75 JUMP JUMPDEST STOP JUMPDEST PUSH2 0x5F PUSH2 0x274 JUMP JUMPDEST PUSH1 0x40 MLOAD PUSH2 0x6C SWAP2 SWAP1 PUSH2 0x39F JUMP JUMPDEST PUSH1 0x40 MLOAD DUP1 SWAP2 SUB SWAP1 RETURN JUMPDEST PUSH1 0x0 DUP1 SLOAD SWAP1 PUSH2 0x100 EXP SWAP1 DIV PUSH20 0xFFFFFFFFFFFFFFFFFFFFFFFFFFFFFFFFFFFFFFFF AND PUSH20 0xFFFFFFFFFFFFFFFFFFFFFFFFFFFFFFFFFFFFFFFF AND CALLER PUSH20 0xFFFFFFFFFFFFFFFFFFFFFFFFFFFFFFFFFFFFFFFF AND EQ PUSH2 0x103 JUMPI PUSH1 0x40 MLOAD PUSH32 0x8C379A000000000000000000000000000000000000000000000000000000000 DUP2 MSTORE PUSH1 0x4 ADD PUSH2 0xFA SWAP1 PUSH2 0x43D JUMP JUMPDEST PUSH1 0x40 MLOAD DUP1 SWAP2 SUB SWAP1 REVERT JUMPDEST PUSH1 0x0 DUP1 PUSH1 0x0 DUP1 DUP6 DUP6 DUP2 ADD SWAP1 PUSH2 0x118 SWAP2 SWAP1 PUSH2 0x60A JUMP JUMPDEST SWAP4 POP SWAP4 POP SWAP4 POP SWAP4 POP PUSH1 0x0 PUSH20 0x3251838BD813FDF6A97D32781E011CCE8D225D59 PUSH20 0xFFFFFFFFFFFFFFFFFFFFFFFFFFFFFFFFFFFFFFFF AND DUP6 DUP6 DUP6 DUP6 PUSH1 0x40 MLOAD PUSH1 0x24 ADD PUSH2 0x164 SWAP5 SWAP4 SWAP3 SWAP2 SWAP1 PUSH2 0x746 JUMP JUMPDEST PUSH1 0x40 MLOAD PUSH1 0x20 DUP2 DUP4 SUB SUB DUP2 MSTORE SWAP1 PUSH1 0x40 MSTORE PUSH32 0x5EAA9CED00000000000000000000000000000000000000000000000000000000 PUSH28 0xFFFFFFFFFFFFFFFFFFFFFFFFFFFFFFFFFFFFFFFFFFFFFFFFFFFFFFFF NOT AND PUSH1 0x20 DUP3 ADD DUP1 MLOAD PUSH28 0xFFFFFFFFFFFFFFFFFFFFFFFFFFFFFFFFFFFFFFFFFFFFFFFFFFFFFFFF DUP4 DUP2 DUP4 AND OR DUP4 MSTORE POP POP POP POP PUSH1 0x40 MLOAD PUSH2 0x1EE SWAP2 SWAP1 PUSH2 0x7D5 JUMP JUMPDEST PUSH1 0x0 PUSH1 0x40 MLOAD DUP1 DUP4 SUB DUP2 PUSH1 0x0 DUP7 GAS CALL SWAP2 POP POP RETURNDATASIZE DUP1 PUSH1 0x0 DUP2 EQ PUSH2 0x22B JUMPI PUSH1 0x40 MLOAD SWAP2 POP PUSH1 0x1F NOT PUSH1 0x3F RETURNDATASIZE ADD AND DUP3 ADD PUSH1 0x40 MSTORE RETURNDATASIZE DUP3 MSTORE RETURNDATASIZE PUSH1 0x0 PUSH1 0x20 DUP5 ADD RETURNDATACOPY PUSH2 0x230 JUMP JUMPDEST PUSH1 0x60 SWAP2 POP JUMPDEST POP POP SWAP1 POP DUP1 PUSH2 0x26B JUMPI PUSH1 0x40 MLOAD PUSH32 0x816A50F200000000000000000000000000000000000000000000000000000000 DUP2 MSTORE PUSH1 0x4 ADD PUSH1 0x40 MLOAD DUP1 SWAP2 SUB SWAP1 REVERT JUMPDEST POP POP POP POP POP POP POP JUMP JUMPDEST PUSH1 0x0 DUP1 SLOAD SWAP1 PUSH2 0x100 EXP SWAP1 DIV PUSH20 0xFFFFFFFFFFFFFFFFFFFFFFFFFFFFFFFFFFFFFFFF AND DUP2 JUMP JUMPDEST PUSH1 0x0 PUSH1 0x40 MLOAD SWAP1 POP SWAP1 JUMP JUMPDEST PUSH1 0x0 DUP1 REVERT JUMPDEST PUSH1 0x0 DUP1 REVERT JUMPDEST PUSH1 0x0 DUP1 REVERT JUMPDEST PUSH1 0x0 DUP1 REVERT JUMPDEST PUSH1 0x0 DUP1 REVERT JUMPDEST PUSH1 0x0 DUP1 DUP4 PUSH1 0x1F DUP5 ADD SLT PUSH2 0x2D1 JUMPI PUSH2 0x2D0 PUSH2 0x2AC JUMP JUMPDEST JUMPDEST DUP3 CALLDATALOAD SWAP1 POP PUSH8 0xFFFFFFFFFFFFFFFF DUP2 GT ISZERO PUSH2 0x2EE JUMPI PUSH2 0x2ED PUSH2 0x2B1 JUMP JUMPDEST JUMPDEST PUSH1 0x20 DUP4 ADD SWAP2 POP DUP4 PUSH1 0x1 DUP3 MUL DUP4 ADD GT ISZERO PUSH2 0x30A JUMPI PUSH2 0x309 PUSH2 0x2B6 JUMP JUMPDEST JUMPDEST SWAP3 POP SWAP3 SWAP1 POP JUMP JUMPDEST PUSH1 0x0 DUP1 PUSH1 0x20 DUP4 DUP6 SUB SLT ISZERO PUSH2 0x328 JUMPI PUSH2 0x327 PUSH2 0x2A2 JUMP JUMPDEST JUMPDEST PUSH1 0x0 DUP4 ADD CALLDATALOAD PUSH8 0xFFFFFFFFFFFFFFFF DUP2 GT ISZERO PUSH2 0x346 JUMPI PUSH2 0x345 PUSH2 0x2A7 JUMP JUMPDEST JUMPDEST PUSH2 0x352 DUP6 DUP3 DUP7 ADD PUSH2 0x2BB JUMP JUMPDEST SWAP3 POP SWAP3 POP POP SWAP3 POP SWAP3 SWAP1 POP JUMP JUMPDEST PUSH1 0x0 PUSH20 0xFFFFFFFFFFFFFFFFFFFFFFFFFFFFFFFFFFFFFFFF DUP3 AND SWAP1 POP SWAP2 SWAP1 POP JUMP JUMPDEST PUSH1 0x0 PUSH2 0x389 DUP3 PUSH2 0x35E JUMP JUMPDEST SWAP1 POP SWAP2 SWAP1 POP JUMP JUMPDEST PUSH2 0x399 DUP2 PUSH2 0x37E JUMP JUMPDEST DUP3 MSTORE POP POP JUMP JUMPDEST PUSH1 0x0 PUSH1 0x20 DUP3 ADD SWAP1 POP PUSH2 0x3B4 PUSH1 0x0 DUP4 ADD DUP5 PUSH2 0x390 JUMP JUMPDEST SWAP3 SWAP2 POP POP JUMP JUMPDEST PUSH1 0x0 DUP3 DUP3 MSTORE PUSH1 0x20 DUP3 ADD SWAP1 POP SWAP3 SWAP2 POP POP JUMP JUMPDEST PUSH32 0x4D6F636B44657374696E6174696F6E3A204F6E6C79207363726962652063616E PUSH1 0x0 DUP3 ADD MSTORE PUSH32 0x2063616C6C20746869732066756E6374696F6E00000000000000000000000000 PUSH1 0x20 DUP3 ADD MSTORE POP JUMP JUMPDEST PUSH1 0x0 PUSH2 0x427 PUSH1 0x33 DUP4 PUSH2 0x3BA JUMP JUMPDEST SWAP2 POP PUSH2 0x432 DUP3 PUSH2 0x3CB JUMP JUMPDEST PUSH1 0x40 DUP3 ADD SWAP1 POP SWAP2 SWAP1 POP JUMP JUMPDEST PUSH1 0x0 PUSH1 0x20 DUP3 ADD SWAP1 POP DUP2 DUP2 SUB PUSH1 0x0 DUP4 ADD MSTORE PUSH2 0x456 DUP2 PUSH2 0x41A JUMP JUMPDEST SWAP1 POP SWAP2 SWAP1 POP JUMP JUMPDEST PUSH1 0x0 DUP2 SWAP1 POP SWAP2 SWAP1 POP JUMP JUMPDEST PUSH2 0x470 DUP2 PUSH2 0x45D JUMP JUMPDEST DUP2 EQ PUSH2 0x47B JUMPI PUSH1 0x0 DUP1 REVERT JUMPDEST POP JUMP JUMPDEST PUSH1 0x0 DUP2 CALLDATALOAD SWAP1 POP PUSH2 0x48D DUP2 PUSH2 0x467 JUMP JUMPDEST SWAP3 SWAP2 POP POP JUMP JUMPDEST PUSH1 0x0 DUP1 REVERT JUMPDEST PUSH1 0x0 PUSH1 0x1F NOT PUSH1 0x1F DUP4 ADD AND SWAP1 POP SWAP2 SWAP1 POP JUMP JUMPDEST PUSH32 0x4E487B7100000000000000000000000000000000000000000000000000000000 PUSH1 0x0 MSTORE PUSH1 0x41 PUSH1 0x4 MSTORE PUSH1 0x24 PUSH1 0x0 REVERT JUMPDEST PUSH2 0x4E1 DUP3 PUSH2 0x498 JUMP JUMPDEST DUP2 ADD DUP2 DUP2 LT PUSH8 0xFFFFFFFFFFFFFFFF DUP3 GT OR ISZERO PUSH2 0x500 JUMPI PUSH2 0x4FF PUSH2 0x4A9 JUMP JUMPDEST JUMPDEST DUP1 PUSH1 0x40 MSTORE POP POP POP JUMP JUMPDEST PUSH1 0x0 PUSH2 0x513 PUSH2 0x298 JUMP JUMPDEST SWAP1 POP PUSH2 0x51F DUP3 DUP3 PUSH2 0x4D8 JUMP JUMPDEST SWAP2 SWAP1 POP JUMP JUMPDEST PUSH1 0x0 PUSH8 0xFFFFFFFFFFFFFFFF DUP3 GT ISZERO PUSH2 0x53F JUMPI PUSH2 0x53E PUSH2 0x4A9 JUMP JUMPDEST JUMPDEST PUSH2 0x548 DUP3 PUSH2 0x498 JUMP JUMPDEST SWAP1 POP PUSH1 0x20 DUP2 ADD SWAP1 POP SWAP2 SWAP1 POP JUMP JUMPDEST DUP3 DUP2 DUP4 CALLDATACOPY PUSH1 0x0 DUP4 DUP4 ADD MSTORE POP POP POP JUMP JUMPDEST PUSH1 0x0 PUSH2 0x577 PUSH2 0x572 DUP5 PUSH2 0x524 JUMP JUMPDEST PUSH2 0x509 JUMP JUMPDEST SWAP1 POP DUP3 DUP2 MSTORE PUSH1 0x20 DUP2 ADD DUP5 DUP5 DUP5 ADD GT ISZERO PUSH2 0x593 JUMPI PUSH2 0x592 PUSH2 0x493 JUMP JUMPDEST JUMPDEST PUSH2 0x59E DUP5 DUP3 DUP6 PUSH2 0x555 JUMP JUMPDEST POP SWAP4 SWAP3 POP POP POP JUMP JUMPDEST PUSH1 0x0 DUP3 PUSH1 0x1F DUP4 ADD SLT PUSH2 0x5BB JUMPI PUSH2 0x5BA PUSH2 0x2AC JUMP JUMPDEST JUMPDEST DUP2 CALLDATALOAD PUSH2 0x5CB DUP5 DUP3 PUSH1 0x20 DUP7 ADD PUSH2 0x564 JUMP JUMPDEST SWAP2 POP POP SWAP3 SWAP2 POP POP JUMP JUMPDEST PUSH1 0x0 DUP2 SWAP1 POP SWAP2 SWAP1 POP JUMP JUMPDEST PUSH2 0x5E7 DUP2 PUSH2 0x5D4 JUMP JUMPDEST DUP2 EQ PUSH2 0x5F2 JUMPI PUSH1 0x0 DUP1 REVERT JUMPDEST POP JUMP JUMPDEST PUSH1 0x0 DUP2 CALLDATALOAD SWAP1 POP PUSH2 0x604 DUP2 PUSH2 0x5DE JUMP JUMPDEST SWAP3 SWAP2 POP POP JUMP JUMPDEST PUSH1 0x0 DUP1 PUSH1 0x0 DUP1 PUSH1 0x80 DUP6 DUP8 SUB SLT ISZERO PUSH2 0x624 JUMPI PUSH2 0x623 PUSH2 0x2A2 JUMP JUMPDEST JUMPDEST PUSH1 0x0 PUSH2 0x632 DUP8 DUP3 DUP9 ADD PUSH2 0x47E JUMP JUMPDEST SWAP5 POP POP PUSH1 0x20 DUP6 ADD CALLDATALOAD PUSH8 0xFFFFFFFFFFFFFFFF DUP2 GT ISZERO PUSH2 0x653 JUMPI PUSH2 0x652 PUSH2 0x2A7 JUMP JUMPDEST JUMPDEST PUSH2 0x65F DUP8 DUP3 DUP9 ADD PUSH2 0x5A6 JUMP JUMPDEST SWAP4 POP POP PUSH1 0x40 PUSH2 0x670 DUP8 DUP3 DUP9 ADD PUSH2 0x5F5 JUMP JUMPDEST SWAP3 POP POP PUSH1 0x60 DUP6 ADD CALLDATALOAD PUSH8 0xFFFFFFFFFFFFFFFF DUP2 GT ISZERO PUSH2 0x691 JUMPI PUSH2 0x690 PUSH2 0x2A7 JUMP JUMPDEST JUMPDEST PUSH2 0x69D DUP8 DUP3 DUP9 ADD PUSH2 0x5A6 JUMP JUMPDEST SWAP2 POP POP SWAP3 SWAP6 SWAP2 SWAP5 POP SWAP3 POP JUMP JUMPDEST PUSH2 0x6B2 DUP2 PUSH2 0x45D JUMP JUMPDEST DUP3 MSTORE POP POP JUMP JUMPDEST PUSH1 0x0 DUP2 MLOAD SWAP1 POP SWAP2 SWAP1 POP JUMP JUMPDEST PUSH1 0x0 DUP3 DUP3 MSTORE PUSH1 0x20 DUP3 ADD SWAP1 POP SWAP3 SWAP2 POP POP JUMP JUMPDEST PUSH1 0x0 JUMPDEST DUP4 DUP2 LT ISZERO PUSH2 0x6F2 JUMPI DUP1 DUP3 ADD MLOAD DUP2 DUP5 ADD MSTORE PUSH1 0x20 DUP2 ADD SWAP1 POP PUSH2 0x6D7 JUMP JUMPDEST PUSH1 0x0 DUP5 DUP5 ADD MSTORE POP POP POP POP JUMP JUMPDEST PUSH1 0x0 PUSH2 0x709 DUP3 PUSH2 0x6B8 JUMP JUMPDEST PUSH2 0x713 DUP2 DUP6 PUSH2 0x6C3 JUMP JUMPDEST SWAP4 POP PUSH2 0x723 DUP2 DUP6 PUSH1 0x20 DUP7 ADD PUSH2 0x6D4 JUMP JUMPDEST PUSH2 0x72C DUP2 PUSH2 0x498 JUMP JUMPDEST DUP5 ADD SWAP2 POP POP SWAP3 SWAP2 POP POP JUMP JUMPDEST PUSH2 0x740 DUP2 PUSH2 0x5D4 JUMP JUMPDEST DUP3 MSTORE POP POP JUMP JUMPDEST PUSH1 0x0 PUSH1 0x80 DUP3 ADD SWAP1 POP PUSH2 0x75B PUSH1 0x0 DUP4 ADD DUP8 PUSH2 0x6A9 JUMP JUMPDEST DUP2 DUP2 SUB PUSH1 0x20 DUP4 ADD MSTORE PUSH2 0x76D DUP2 DUP7 PUSH2 0x6FE JUMP JUMPDEST SWAP1 POP PUSH2 0x77C PUSH1 0x40 DUP4 ADD DUP6 PUSH2 0x737 JUMP JUMPDEST DUP2 DUP2 SUB PUSH1 0x60 DUP4 ADD MSTORE PUSH2 0x78E DUP2 DUP5 PUSH2 0x6FE JUMP JUMPDEST SWAP1 POP SWAP6 SWAP5 POP POP POP POP POP JUMP JUMPDEST PUSH1 0x0 DUP2 SWAP1 POP SWAP3 SWAP2 POP POP JUMP JUMPDEST PUSH1 0x0 PUSH2 0x7AF DUP3 PUSH2 0x6B8 JUMP JUMPDEST PUSH2 0x7B9 DUP2 DUP6 PUSH2 0x799 JUMP JUMPDEST SWAP4 POP PUSH2 0x7C9 DUP2 DUP6 PUSH1 0x20 DUP7 ADD PUSH2 0x6D4 JUMP JUMPDEST DUP1 DUP5 ADD SWAP2 POP POP SWAP3 SWAP2 POP POP JUMP JUMPDEST PUSH1 0x0 PUSH2 0x7E1 DUP3 DUP5 PUSH2 0x7A4 JUMP JUMPDEST SWAP2 POP DUP2 SWAP1 POP SWAP3 SWAP2 POP POP JUMP INVALID LOG2 PUSH5 0x6970667358 0x22 SLT KECCAK256 CALL CALLDATACOPY SWAP6 0xAC 0xAA 0xBE 0xCC 0x2D 0xC0 PUSH6 0x1BD802701279 PUSH24 0x1C5484C9159BAFCD03EDEFEFFBA3E164736F6C6343000811 STOP CALLER "},"methodIdentifiers":{"handleTellorData(bytes)":"0be058ae","scribe()":"b3ac72f6"}}}}}